:020000040000FA
:04000000E9EF0FF025
:1008000000443A543A4C3A002564636D002564472D
:100810000025645000001250800B1B6E12501224F1
:10082000216E11AE16EF04F018EF04F019EF04F08A
:1008300021802150D8B41FEF04F021EF04F034EFF1
:1008400004F02128D8A427EF04F029EF04F031EFB9
:1008500004F0000E0F6E000E106E000E116E000EF2
:10086000126E118E3CEF04F0000E0F6E000E106E33
:10087000000E116E000E126E1650800B1B1A1650D1
:100880001624206E15AE47EF04F049EF04F04AEF4E
:1008900004F020802050D8B450EF04F052EF04F060
:1008A00065EF04F02028D8A458EF04F05AEF04F0C4
:1008B00062EF04F0000E136E000E146E000E156E43
:1008C000000E166E158E6DEF04F0000E136E000E06
:1008D000146E000E156E000E166E2050D8B473EF15
:1008E00004F075EF04F07DEF04F02150D8A47BEF05
:1008F00004F07DEF04F087EF04F0000E0F6E000EA1
:10090000106E000E116E000E126E1FEF06F01550E5
:100910000F02F3CF26F0F4CF27F026501C6E1D6A8D
:100920001E6A1F6A2750226E236A246A256A1450A1
:100930001002F3CF26F0F4CF27F026501C26000E2D
:100940001D221E221F2227502226000E232224228F
:10095000252213501102F3CF26F0F4CF27F02650B2
:100960001C26000E1D221E221F2227502226000EAA
:100970002322242225221EC01FF01DC01EF01CC0F1
:100980001DF01C6A13501002F3CF26F0F4CF27F0AD
:1009900026501C2627501D22000E1E22000E1F224C
:1009A00014500F02F3CF26F0F4CF27F026501C2668
:1009B00027501D22000E1E22000E1F221EC01FF0F7
:1009C0001DC01EF01CC01DF01C6A13500F02F3CF97
:1009D00026F0F4CF27F026501C2627501D22000EAB
:1009E0001E22000E1F2215501002F3CF26F0F4CF66
:1009F00027F02650222627502322000E2422000E04
:100A0000252214501102F3CF26F0F4CF27F0265000
:100A1000222627502322000E2422000E25221550C4
:100A20001102F3CF26F0F4CF27F02650176E27508F
:100A3000186E196A1A6A19C01AF018C019F017C08E
:100A400018F0176A17502226185023221950242212
:100A50001A5025221CC017F01DC018F01EC019F036
:100A60001FC01AF0190E3AEF05F0D8901A32193259
:100A700018321732E82E35EF05F01750222618509D
:100A80002322195024221A5025221EC01FF01DC0F7
:100A90001EF01CC01DF01C6A205021C017F0186AFF
:100AA0001726000E1822820E1724266EFF0E18201D
:100AB000276E70EF05F0D89022362336243625367F
:100AC0001FAE65EF05F067EF05F068EF05F02280D7
:100AD000D8901C361D361E361F362606D8A027068F
:100AE00024AE75EF05F077EF05F05BEF05F0000E33
:100AF000206E1FAE7EEF05F080EF05F0A4EF05F04D
:100B0000FF0E1C14176EFF0E1D14186EFF0E1E1420
:100B1000196E7F0E1F141A6E1750181019101A1024
:100B2000D8B495EF05F097EF05F09BEF05F0010EB7
:100B3000206EA4EF05F022A0A0EF05F0A2EF05F0D3
:100B4000A4EF05F097EF05F02050D8B4AAEF05F018
:100B5000ACEF05F0D0EF05F0010E2226000E2322A7
:100B60002422252225A0B7EF05F0B9EF05F0D0EF3C
:100B700005F022C017F023C018F024C019F025C0DA
:100B80001AF01A341A3219321832173217C022F0FA
:100B900018C023F019C024F01AC025F0264A272ACD
:100BA00027BEDBEF05F0275008E12628D8A0DBEFB1
:100BB00005F0DDEF05F0E7EF05F0000E226E000E08
:100BC000236E800E246E7F0E256E15EF06F027BE75
:100BD000F4EF05F0275006E12604D8B0F2EF05F057
:100BE000F4EF05F000EF06F0000E226E000E236E0B
:100BF000000E246E000E256E000E1B6E15EF06F023
:100C000026C021F0FF0E2216FF0E23167F0E24169B
:100C1000000E251621A00FEF06F011EF06F012EFDF
:100C200006F0248ED8902130256E1B50251222C04C
:100C30000FF023C010F024C011F025C012F01200F4
:100C40001EC036F01FC037F020C038F021C039F088
:100C500022C03AF023C03BF024C03CF025C03DF058
:100C60003DBE35EF06F038EF06F0010E39EF06F025
:100C7000000E346E356A34503510D8B442EF06F0A9
:100C800044EF06F054EF06F03D1E3C1E3B1E3A1E9C
:100C9000391E381E371E366C000E37223822392294
:100CA0003A223B223C223D220001E9BF5AEF06F0E6
:100CB0005CEF06F05DEF06F0EA93E9BF6AEF06F03D
:100CC000E95106E1E805D8B068EF06F06AEF06F0F2
:100CD00070EF06F0000E316E010E306E74EF06F00C
:100CE000E8C030F0E9C031F0E6C032F0E7C033F0E0
:100CF00034503510D8A47FEF06F081EF06F088EF6E
:100D000006F0EAA586EF06F088EF06F08BEF06F016
:100D10003206D8A03306000E3F6E1F0E3E6E000E48
:100D200001014F6F10EF07F03E06D8A03F06300ECE
:100D30003E24D96E010E3F20DA6E36C001F037C076
:100D400002F038C003F039C004F03AC005F03BC0EF
:100D500006F03CC007F03DC008F00A0E096E000E18
:100D60000A6E000E0B6E000E0C6E000E0D6E000E65
:100D70000E6E000E0F6E000E106E0AEC0AF001C02F
:100D800026F002C027F003C028F004C029F005C0F7
:100D90002AF006C02BF007C02CF008C02DF026C0AA
:100DA00013F028C014F04BEC10F01350300FDF6E2E
:100DB0003006D8A031063206D8A0330636C001F07E
:100DC00037C002F038C003F039C004F03AC005F073
:100DD0003BC006F03CC007F03DC008F00A0E096EAB
:100DE000000E0A6E000E0B6E000E0C6E000E0D6EE5
:100DF000000E0E6E000E0F6E000E106E46EC09F027
:100E000001C036F002C037F003C038F004C039F03A
:100E100005C03AF006C03BF007C03CF008C03DF00A
:100E20003FBE1BEF07F03F5008E13E04D8A01BEF88
:100E300007F01DEF07F04EEF07F03650371038106F
:100E400039103A103B103C103D10D8A42AEF07F09F
:100E50002CEF07F094EF06F031BE39EF07F0315078
:100E600006E13004D8B037EF07F039EF07F094EF20
:100E700006F033BE44EF07F0335008E13204D8A047
:100E800044EF07F046EF07F04EEF07F00001EAB33A
:100E90004CEF07F04EEF07F094EF06F034503510AA
:100EA000D8A455EF07F057EF07F05FEF07F0000108
:100EB000EAA55DEF07F05FEF07F07DEF07F03E0674
:100EC000D8A03F0634503510D8A469EF07F06BEF77
:100ED00007F071EF07F0000E2F6E2B0E2E6E75EFE0
:100EE00007F0000E2F6E2D0E2E6E300E3E24D96EA2
:100EF000010E3F20DA6E2EC0DFFF1CC011F01DC0B6
:100F000012F0300E3E24136E010E3F20146E32C0DC
:100F100015F033C016F080EC0CF011C01CF012C0BC
:100F20001DF01200096E0950D8B499EF07F09BEF3D
:100F300007F0BDEF07F004BEA2EF07F0A0EF07F047
:100F4000BDEF07F001C005F002C006F003C007F0D6
:100F500004C008F0051E061E071E081E052A000E06
:100F600006220722082205C00BF006C00CF007C0BD
:100F70000DF008C00EF0C5EF07F001C00BF002C085
:100F80000CF003C00DF004C00EF00150021003106D
:100F90000410D8A4CEEF07F0D0EF07F0DAEF07F097
:100FA000000E016E000E026E000E036E000E046E47
:100FB0006BEF08F0960E0A6EE4EF07F00A2AD8905D
:100FC0000E320D320C320B32000E0B14056E000E79
:100FD0000C14066E000E0D14076EFE0E0E14086E35
:100FE0000550061007100810D8A4F9EF07F0FBEF22
:100FF00007F0DEEF07F009EF08F00A2A010E0B26D2
:10100000000E0C220D220E22D8900E320D320C3220
:101010000B32000E0B14056E000E0C14066E000E43
:101020000D14076EFF0E0E14086E05500610071003
:101030000810D8A41EEF08F020EF08F0FDEF07F02D
:1010400028EF08F00A06D8900B360C360D360E360F
:101050000DBE2DEF08F02FEF08F037EF08F0020E6D
:101060000A6035EF08F037EF08F022EF08F00AB019
:101070003CEF08F03EEF08F03FEF08F00D9ED890EF
:101080000A320AC005F0066A076A086A05C008F055
:10109000076A066A056A05500B1206500C120750C3
:1010A0000D1208500E120950D8B459EF08F05BEF3A
:1010B00008F063EF08F004BE62EF08F060EF08F09C
:1010C00063EF08F00E8E0BC001F00CC002F00DC0F3
:1010D00003F00EC004F0120042C0D9FF43C0DAFF93
:1010E000DECFF6FFDDCFF7FF0800F550250AD8A4C4
:1010F0007CEF08F07EEF08F02AEF09F042C0D9FF3C
:1011000043C0DAFFDE2A000EDD22000E0001E76F89
:10111000000EE66FE6C0EAF0E7C0EBF0E869E969C7
:1011200042C0D9FF43C0DAFFDECFF6FFDDCFF7FFC5
:101130000800F550640AD8B4A0EF08F0A2EF08F058
:10114000B4EF08F042C0D9FF43C0DAFFDECFF6FFAC
:10115000DDCFF7FF0800F550690AD8A4B2EF08F018
:10116000B4EF08F0F4EF08F042C0D9FF43C0DAFF53
:10117000DE2A000EDD2244C0D9FF45C0DAFFDFCFF2
:1011800046F0020EDE26DFCF47F0000EDD2246C01D
:10119000D9FF47C0DAFFDECF48F0DDCF49F0000EBF
:1011A00049BEFF0E4A6E4B6E4C6E4D6E4E6E4F6ECC
:1011B00040C01CF041C01DF048C01EF049C01FF0E7
:1011C0004AC020F04BC021F04CC022F04DC023F0AB
:1011D0004EC024F04FC025F020EC06F01CC040F0BB
:1011E0001DC041F045EF09F042C0D9FF43C0DAFF0E
:1011F000DECFF6FFDDCFF7FF0800F550250AD8A4B3
:1012000004EF09F006EF09F01DEF09F042C0D9FF25
:1012100043C0DAFFDE2A000EDD22000E026E250E2C
:10122000016E40C003F041C004F01BEC0CF0000E56
:10123000416E010E406E45EF09F042C0D9FF43C038
:10124000DAFFDE2A000EDD22000E416E000E406E37
:1012500045EF09F042C0D9FF43C0DAFFDECFF6FF09
:10126000DDCFF7FF0800F550016E026A40C003F0C1
:1012700041C004F01BEC0CF042C0D9FF43C0DAFFC0
:10128000DE2A000EDD2217EF09F01200000E126EAA
:1012900010BE4FEF09F04DEF09F061EF09F0101E9D
:1012A0000F1E0E1E0D1E0C1E0B1E0A1E096C000EBC
:1012B0000A220B220C220D220E220F221022010ED6
:1012C000126E08BE68EF09F066EF09F07AEF09F0D8
:1012D000081E071E061E051E041E031E021E016CAC
:1012E000000E0222032204220522062207220822DF
:1012F000010E121A20EE13F0070EDE6AE806FDE278
:1013000009500A100B100C100D100E100F101010B9
:10131000D8B48DEF09F08FEF09F0E1EF09F0010E7D
:10132000116E9DEF09F0D89009360A360B360C364F
:101330000D360E360F361036112A10AEA2EF09F018
:10134000A4EF09F093EF09F0D89013361436153650
:1013500016361736183619361A360950015C0A50F7
:1013600002580B5003580C5004580D5005580E509D
:1013700006580F50075810500858D8A0C2EF09F06F
:10138000C4EF09F0D5EF09F00950015E0A50025A86
:101390000B50035A0C50045A0D50055A0E50065A61
:1013A0000F50075A1050085A1380D89010320F323D
:1013B0000E320D320C320B320A320932112EA4EFEA
:1013C00009F01250D8B4E7EF09F0E9EF09F0F9EFAE
:1013D00009F01A1E191E181E171E161E151E141EA1
:1013E000136C000E1422152216221722182219221D
:1013F0001A2213C001F014C002F015C003F016C089
:1014000004F017C005F018C006F019C007F01AC0A4
:1014100008F01200000E126E08BE13EF0AF011EF72
:101420000AF025EF0AF0081E071E061E051E041E00
:10143000031E021E016C000E02220322042205225A
:10144000062207220822010E126E10BE2CEF0AF0AF
:101450002AEF0AF03CEF0AF0101E0F1E0E1E0D1EA2
:101460000C1E0B1E0A1E096C000E0A220B220C22F7
:101470000D220E220F22102209500A100B100C1000
:101480000D100E100F101010D8B449EF0AF04BEFEA
:101490000AF093EF0AF0010E116E59EF0AF0D8909E
:1014A00009360A360B360C360D360E360F36103628
:1014B000112A10AE5EEF0AF060EF0AF04FEF0AF06B
:1014C0000950015C0A5002580B5003580C50045844
:1014D0000D5005580E5006580F5007581050085818
:1014E000D8A075EF0AF077EF0AF087EF0AF00950FD
:1014F000015E0A50025A0B50035A0C50045A0D5008
:10150000055A0E50065A0F50075A1050085AD890D4
:1015100010320F320E320D320C320B320A320932D7
:10152000112E60EF0AF01250D8B499EF0AF09BEF39
:101530000AF0ABEF0AF0081E071E061E051E041E69
:10154000031E021E016C000E022203220422052249
:1015500006220722082201C001F002C002F003C0E7
:1015600003F004C004F005C005F006C006F007C093
:1015700007F008C008F012002A342B34316E3150C5
:10158000D8A4C5EF0AF0C7EF0AF0D1EF0AF0000EB9
:10159000286E000E296E000E2A6E000E2B6E3EEF96
:1015A0000BF028C02CF029C02DF02AC02EF02BC043
:1015B0002FF0200EE1EF0AF0D8902F322E322D328C
:1015C0002C32E82EDCEF0AF02C50306E2A8EFF0E03
:1015D0002816FF0E2916FF0E2A16000E2B16960E41
:1015E000315E31BEF8EF0AF0F6EF0AF00EEF0BF0C5
:1015F0003150800A970FD8B000EF0BF002EF0BF0DC
:1016000004EF0BF0C7EF0AF0D8902B322A322932C0
:101610002832313E04EF0BF026EF0BF01F0E316441
:1016200014EF0BF016EF0BF01EEF0BF0C7EF0AF004
:10163000D890283629362A362B3631063150D8A490
:1016400024EF0BF026EF0BF018EF0BF03050D8B46E
:101650002CEF0BF02EEF0BF036EF0BF02B1E2A1EAB
:10166000291E286C000E29222A222B2228C028F0AD
:1016700029C029F02AC02AF02BC02BF01200000E3E
:10168000056E010E066E080E076E000E6BEC10F074
:1016900020EE6EF00F0EDE6AE806FDE26E0E586E6A
:1016A000000E596E080E5A6E080E5B6E68C05CF034
:1016B00069C05DF005EC0FF020EE7EF00F0EDE6AE3
:1016C000E806FDE27E0E586E000E596E0D0E5A6E43
:1016D000080E5B6E6AC05CF06BC05DF005EC0FF04D
:1016E00020EE8EF00F0EDE6AE806FDE28E0E586EDA
:1016F000000E596E110E5A6E080E5B6E6CC05CF0D7
:101700006DC05DF005EC0FF0C00E56EC0FF0000E52
:10171000056E6E0E066E000E076E030E6BEC10F07B
:10172000060E056E7E0E066E000E076E030E6BEC47
:1017300010F00B0E056E8E0E066E000E076E030E79
:101740006BEC10F00A0E5F6E220E5E6EA10EE82E9C
:10175000FED75E2EFCD75F2EFAD700F012EC11F008
:101760001200000E0B6E000E0A6E05BEC1EF0BF0EC
:10177000055009E1110E045CD8A0C1EF0BF0C3EFD6
:101780000BF0D1EF0BF005BECFEF0BF0055009E1E8
:101790001F0E045CD8A0CFEF0BF0D1EF0BF0D6EF0B
:1017A0000BF0050EE9EC10F00A4A0B2A07BEE4EF35
:1017B0000BF0075007E1280E065CD8B0E2EF0BF003
:1017C000E4EF0BF0E9EF0BF0060EE9EC10F00A4A3B
:1017D0000B2A09BEF7EF0BF0095007E13D0E085C3C
:1017E000D8B0F5EF0BF0F7EF0BF005EF0CF009BEFA
:1017F00005EF0CF0095007E10A0E085CD8B003EFC2
:101800000CF005EF0CF00AEF0CF0070EE9EC10F00D
:101810000A4A0B2A0A500B10D8A411EF0CF013EF50
:101820000CF016EF0CF0040EE9EC10F00AC004F016
:101830000BC005F0120003500410D8B422EF0CF0D6
:1018400024EF0CF02DEF0CF003500410D8A42BEF74
:101850000CF02DEF0CF032EF0CF0015016EC11F003
:101860007FEF0CF020EE04F00350D9260450DA226A
:10187000DE50DE10D8B43FEF0CF041EF0CF05CEF1F
:101880000CF020EE04F00350D9260450DA2210EEBA
:1018900002F00350E1260450E222DE50E65CE650FE
:1018A000800A096EDE50800A0958D8B05AEF0CF051
:1018B0005CEF0CF07FEF0CF020EE02F00350D92625
:1018C0000450DA22DECF05F0DDCF06F003C0D9FFE9
:1018D00004C0DAFFDECF07F0DDCF08F005500724A3
:1018E000D96E06500820DA6E01C0DFFF20EE02F04C
:1018F0000350D9260450DA22DE2A000EDD2212001F
:101900000001EAA186EF0CF088EF0CF092EF0CF0EA
:1019100013C00AF014C00BF011C00CF012C00DF08F
:10192000C7EC0FF016BE97EF0CF099EF0CF09FEF9D
:101930000CF015C01AF016C01BF0A3EF0CF0000E4F
:101940001B6E000E1A6E000E196E000E186EB5EFAB
:101950000CF0000E026E200E016E11C003F012C0DA
:1019600004F01BEC0CF0184A192A1A50185C195094
:10197000800A176E1B50800A1758D8A0C2EF0CF0CF
:10198000C4EF0CF0A9EF0CF00001EAB1CAEF0CF0C3
:10199000CCEF0CF0D6EF0CF013C00AF014C00BF033
:1019A00011C00CF012C00DF0C7EC0FF013C001F025
:1019B00014C002F08BEC10F01A500124116E1B5071
:1019C0000220126E120006EC11F07EEC0FF001C046
:1019D000F4F002C0F5F00001F55107E1270EF45DC7
:1019E000D8B0F5EF0CF0F7EF0CF008EF0DF0F55173
:1019F00009E10D0EF45DD8A000EF0DF002EF0DF03F
:101A000008EF0DF0020EF427000EF52327EF0DF07E
:101A1000F55109E1270EF45DD8A011EF0DF013EF99
:101A20000DF019EF0DF0030EF427000EF52327EF4C
:101A30000DF0F55107E10D0EF45DD8B022EF0DF079
:101A400024EF0DF027EF0DF0F407D8A0F507F4C050
:101A500005F0F5C006F0120020EEBCF010EE07F025
:101A6000070EDBCFE3FFE806FCE220EEB4F010EE59
:101A70000FF0070EDBCFE3FFE806FCE220EEACF050
:101A800010EE17F0070EDBCFE3FFE806FCE220EED6
:101A9000A4F010EE1FF0070EDBCFE3FFE806FCE238
:101AA0001F0E036E000E046E040EA3EC0FF0070E63
:101AB000036E000E046E050EA3EC0FF00F0E036E06
:101AC000000E046E060EA3EC0FF0170E036E000E50
:101AD000046E070EA3EC0FF01200F4EC10F0A6EC6D
:101AE00010F00DEC11F02CEC0DF0E3EC0CF005C057
:101AF0009EF006C09FF02DEC0EF032C0A0F033C077
:101B0000A1F0ADEC0DF00EC0A2F00FC0A3F0A0C08C
:101B100004F0A1C005F09EC006F09FC007F0A2C06F
:101B200008F0A3C009F0B1EC0BF004C00CF005C044
:101B30000DF0EDEC0DF09EC068F09FC069F0A0C004
:101B40006AF0A1C06BF0A2C06CF0A3C06DF03FECD6
:101B50000BF075EF0DF000EF00F09282000E046EB6
:101B6000010E036EFEEC10F0C0EC10F001C0EEF0C0
:101B700002C0EFF0EEC001F0EFC002F0000E046E04
:101B8000050E036ED6EC10F00A0E106ED8900232DD
:101B90000132102EC6EF0DF001C0EEF002C0EFF0E2
:101BA000EEC001F0EFC002F0000E046E640E036E92
:101BB000D6EC10F001C007F002C008F0000E0A6E6B
:101BC000050E096E6BEC0EF007C0ECF008C0EDF0EE
:101BD000ECC00EF0EDC00FF012000C500D10D8A4A8
:101BE000F4EF0DF0F6EF0DF0FBEF0DF08A8A8A9816
:101BF0008A962CEF0EF00C040D10D8A402EF0EF014
:101C000004EF0EF009EF0EF08A9A8A888A962CEF7C
:101C10000EF00DBE14EF0EF00D5008E10C04D8A02C
:101C200014EF0EF016EF0EF029EF0EF00DBE24EFBC
:101C30000EF00D5007E1040E0C5CD8B022EF0EF050
:101C400024EF0EF029EF0EF08A9A8A988A862CEFFC
:101C50000EF08A8A8A888A8612009280000E046EAC
:101C6000000E036EFEEC10F0C0EC10F001C0F0F0BE
:101C700002C0F1F0E30E136E360E146EFA0E156EFE
:101C80003E0E166EF0C001F0F1C002F0000E02BE72
:101C9000FF0E036E046E010E92EC07F001C00FF010
:101CA00002C010F003C011F004C012F00BEC04F0FD
:101CB0000FC028F010C029F011C02AF012C02BF07C
:101CC000BCEC0AF028C0F2F029C0F3F0F2C032F008
:101CD000F3C033F01200000E0C6E000E0B6E0950B4
:101CE0000A10D8B476EF0EF078EF0EF0A0EF0EF0F9
:101CF000010E0D6E80EF0EF0D89009360A360D2ACF
:101D00000AAE85EF0EF087EF0EF07CEF0EF0D89064
:101D10000B360C360950075C0A500858D8A093EFD0
:101D20000EF095EF0EF09AEF0EF00950075E0A5094
:101D3000085A0B80D8900A3209320D2E87EF0EF028
:101D40000BC007F00CC008F0120052C056F053C090
:101D500057F0000E0001E56F000EE46FC3EF0EF0C8
:101D600050C040F051C041F0560E426E000E436E1E
:101D700054C044F055C045F06CEC08F040500001F0
:101D8000E4274150E52356C0F6FF57C0F7FF08008F
:101D9000F5500009D8A4CFEF0EF0D1EF0EF0B0EF60
:101DA0000EF0E4C050F0E5C051F01200ECEF0EF080
:101DB00003C0F6FF04C0F7FFF86A070EF76403D00C
:101DC0000800F55005D0F6CFE9FFF7CFEAFFEF5056
:101DD0002EEC0FF0034A042A03C0F6FF04C0F7FFFD
:101DE000F86A070EF76403D00800F55005D0F6CF67
:101DF000E9FFF7CFEAFFEF500009D8A402EF0FF098
:101E000004EF0FF0D8EF0EF012005C0E0001606FCF
:101E1000000E616F58C062F059C063F0000E656F2C
:101E2000000E646F000E676F000E666F620E506EDC
:101E3000000E516E5AC052F05BC053F0600E546EEB
:101E4000000E556EA5EC0EF0000164515824D96EB9
:101E500065515920DA6E000EDF6E1200026E02C06C
:101E600001F0F00E01168C500F0B01108C6E8C805F
:101E70008C8200F08C92030E016E980EE82EFED735
:101E8000012EFCD702C001F0013AF00E01168C5071
:101E90000F0B01108C6E8C8200F08C92080E016E7C
:101EA000CA0EE82EFED7012EFCD71200026E02C029
:101EB00001F0F00E01168C500F0B01108C6E8C90FF
:101EC0008C8200F08C92030E016E980EE82EFED7E5
:101ED000012EFCD702C001F0013AF00E01168C5021
:101EE0000F0B01108C6E8C8200F08C92080E016E2C
:101EF000CA0EE82EFED7012EFCD71200000E046E8B
:101F0000000E036E8B80060EE82EFED700D08B905D
:101F100082A28DEF0FF08FEF0FF088EF0FF097EFA9
:101F20000FF0034A042A260EE82EFED700D082B214
:101F30009CEF0FF09EEF0FF091EF0FF003C001F058
:101F400004C002F01200056E080E0560AAEF0FF043
:101F5000ACEF0FF0C6EF0FF00550080DF350400F37
:101F600056EC0FF0000E066E06500324D96E000EDC
:101F70000420DA6EDF502EEC0FF0062A070E0664FE
:101F8000C4EF0FF0C6EF0FF0B4EF0FF01200000E29
:101F9000106E000E0F6ED8EF0FF00EC001F0026A47
:101FA0000CC003F00DC004F01BEC0CF00F4A102A1B
:101FB0000F500A24D96E10500B20DA6EDF500E6ECF
:101FC0000E50D8A4E6EF0FF0E8EF0FF0CDEF0FF0D2
:101FD0001200560EF66E200EF76E000EF86E00EE32
:101FE000A4F010EE40F00900F5CFEEFFE550E1500F
:101FF000FAE101EE00F0500EEE6AE806FDE100EEB7
:10200000E4F0120EEE6AE806FDE1000EF86E000143
:102010006DEF0DF0C150F00B0D09C16ECF0EC11662
:1020200001500210D8A417EF10F019EF10F01DEFB7
:1020300010F0C30EC21621EF10F0C250C30B0409FA
:10204000C26EC050C70B1009C06EC050F80B01091A
:10205000C06EC2801200000A0A001F0E04000A0AA5
:102060000A1F110E0404000004021F0204000415DC
:102070000E1F0E150400000A0A001F0E04000A0AB3
:102080000A1F110E0404000004021F0204000415BC
:102090000E1F0E15040014BE58EF10F0145006E188
:1020A0001304D8B056EF10F058EF10F066EF10F0B0
:1020B00013C015F014C016F0151E161E154A162A68
:1020C00015C013F016C014F06AEF10F013C013F02F
:1020D00014C014F01200086E020E086072EF10F0C7
:1020E00074EF10F07DEF10F005500F0B8009096EB2
:1020F000095056EC0FF084EF10F005500F0BC0099B
:10210000096E095056EC0FF006C003F007C004F04A
:10211000D6EC0EF0120001C003F002C004F093EF01
:1021200010F0014A022A01C0D9FF02C0DAFFDF50D5
:10213000D8A49DEF10F09FEF10F091EF10F0035036
:10214000015C016E04500258026E1200000E956E82
:10215000270E036EF50EE82EFED7032EFCD700F0F7
:10216000020E56EC0FF0280E56EC0FF0010E56EC56
:102170000FF00C0E56EC0FF0060E56EC0FF012009E
:10218000C282C2B2C6EF10F0C8EF10F0C1EF10F07B
:10219000C4CF05F0066A0550036EC350056E03C038
:1021A00006F005C001F006C002F012000150030263
:1021B000F3CF05F0F4CF06F001500402F3500626E9
:1021C00002500302F350062605C001F006C002F0DB
:1021D0001200036E0350020DF350800956EC0FF00D
:1021E00003502EEC0FF01200700ED312D350FC0BE4
:1021F0000209D36E720ED36EF19E120003C001F07D
:1022000004C002F00AEC10F0C08E12000F0EC112D2
:102210008B928B90948294901200939C939A9396B5
:0E22200093981200010E56EC0FF012001200FF
:020000040020DA
:08000000FFFFFFFFFFFFFFFF00
:020000040030CA
:0E0000000088181EFF8181FF0FC00FE00F4027
:00000001FF
